{
  "contractName": "KingOfTheFools",
  "abi": [
    {
      "inputs": [
        {
          "internalType": "address",
          "name": "_usdcAddress",
          "type": "address"
        },
        {
          "internalType": "address",
          "name": "_priceFeed",
          "type": "address"
        }
      ],
      "stateMutability": "nonpayable",
      "type": "constructor"
    },
    {
      "anonymous": false,
      "inputs": [
        {
          "indexed": true,
          "internalType": "address",
          "name": "_from",
          "type": "address"
        },
        {
          "indexed": false,
          "internalType": "uint256",
          "name": "_currency",
          "type": "uint256"
        },
        {
          "indexed": false,
          "internalType": "uint256",
          "name": "_value",
          "type": "uint256"
        }
      ],
      "name": "Deposit",
      "type": "event"
    },
    {
      "anonymous": false,
      "inputs": [
        {
          "indexed": true,
          "internalType": "address",
          "name": "previousOwner",
          "type": "address"
        },
        {
          "indexed": true,
          "internalType": "address",
          "name": "newOwner",
          "type": "address"
        }
      ],
      "name": "OwnershipTransferred",
      "type": "event"
    },
    {
      "inputs": [],
      "name": "owner",
      "outputs": [
        {
          "internalType": "address",
          "name": "",
          "type": "address"
        }
      ],
      "stateMutability": "view",
      "type": "function",
      "constant": true
    },
    {
      "inputs": [],
      "name": "renounceOwnership",
      "outputs": [],
      "stateMutability": "nonpayable",
      "type": "function"
    },
    {
      "inputs": [
        {
          "internalType": "address",
          "name": "newOwner",
          "type": "address"
        }
      ],
      "name": "transferOwnership",
      "outputs": [],
      "stateMutability": "nonpayable",
      "type": "function"
    },
    {
      "inputs": [],
      "name": "usdcToken",
      "outputs": [
        {
          "internalType": "contract ERC20Token",
          "name": "",
          "type": "address"
        }
      ],
      "stateMutability": "view",
      "type": "function",
      "constant": true
    },
    {
      "inputs": [],
      "name": "depositEth",
      "outputs": [],
      "stateMutability": "payable",
      "type": "function",
      "payable": true
    },
    {
      "inputs": [
        {
          "internalType": "uint256",
          "name": "_amount",
          "type": "uint256"
        }
      ],
      "name": "depositUSDC",
      "outputs": [],
      "stateMutability": "nonpayable",
      "type": "function"
    },
    {
      "inputs": [],
      "name": "getContractBal",
      "outputs": [
        {
          "internalType": "uint256",
          "name": "",
          "type": "uint256"
        }
      ],
      "stateMutability": "view",
      "type": "function",
      "constant": true
    }
  ],
  "bytecode": "0x608060405234801561001057600080fd5b50604051610aac380380610aac83398101604081905261002f916100e0565b61003f61003a610070565b610074565b600280546001600160a01b039384166001600160a01b03199182161790915560018054929093169116179055610112565b3390565b600080546001600160a01b038381166001600160a01b0319831681178455604051919092169283917f8be0079c531659141344cd1fd0a4f28419497f9722a3daafe3b4186f6b6457e09190a35050565b80516001600160a01b03811681146100db57600080fd5b919050565b600080604083850312156100f2578182fd5b6100fb836100c4565b9150610109602084016100c4565b90509250929050565b61098b806101216000396000f3fe6080604052600436106100705760003560e01c8063715018a61161004e578063715018a6146100cc5780638da5cb5b146100e1578063f2fde38b146100f6578063f688bcfb1461011657610070565b806311eac85514610075578063439370b1146100a05780635d9fa6fc146100aa575b600080fd5b34801561008157600080fd5b5061008a610136565b60405161009791906107f0565b60405180910390f35b6100a8610145565b005b3480156100b657600080fd5b506100bf6101c5565b6040516100979190610901565b3480156100d857600080fd5b506100a86101c9565b3480156100ed57600080fd5b5061008a6101dd565b34801561010257600080fd5b506100a8610111366004610742565b6101ec565b34801561012257600080fd5b506100a8610131366004610789565b61022f565b6002546001600160a01b031681565b610150600034610357565b60408051606081018252600080825234602083018190523392840183905260038290556004819055600580546001600160a01b03191684179055925191927f90890809c654f11d6e72a28fa60149770a0d11ec6c92319d6ceb2bb0a4ea1a15926101bb929190610841565b60405180910390a2565b4790565b6101d16105d3565b6101db6000610612565b565b6000546001600160a01b031690565b6101f46105d3565b6001600160a01b0381166102235760405162461bcd60e51b815260040161021a9061084f565b60405180910390fd5b61022c81610612565b50565b6000811161024f5760405162461bcd60e51b815260040161021a90610895565b6002546040516323b872dd60e01b81526001600160a01b03909116906323b872dd9061028390339030908690600401610804565b602060405180830381600087803b15801561029d57600080fd5b505af11580156102b1573d6000803e3d6000fd5b505050506040513d601f19601f820116820180604052508101906102d59190610769565b506102e1600182610357565b604080516060810182526001808252602082018490523391830182905260038190556004849055600580546001600160a01b03191683179055915190917f90890809c654f11d6e72a28fa60149770a0d11ec6c92319d6ceb2bb0a4ea1a159161034c91908590610841565b60405180910390a250565b600454156105cf5760035482146104c3576000610372610662565b9050600061039d8261039764e8d4a5100060036001015461070090919063ffffffff16565b90610713565b9050836001141561046a576004546103c09064e8d4a51000906103979085610700565b9050826103d36002610397846003610700565b11610465576002546005546040516323b872dd60e01b81526001600160a01b03928316926323b872dd92610411923092909116908890600401610804565b602060405180830381600087803b15801561042b57600080fd5b505af115801561043f573d6000803e3d6000fd5b505050506040513d601f19601f820116820180604052508101906104639190610769565b505b6104bc565b8261047b6002610397846003610700565b116104bc576005546040516001600160a01b039091169084156108fc029085906000818181858888f193505050501580156104ba573d6000803e3d6000fd5b505b50506105cf565b81600114156105775760045481906104e390600290610397906003610700565b116105725760025460055460405163a9059cbb60e01b81526001600160a01b039283169263a9059cbb9261051e929116908590600401610828565b602060405180830381600087803b15801561053857600080fd5b505af115801561054c573d6000803e3d6000fd5b505050506040513d601f19601f820116820180604052508101906105709190610769565b505b6105cf565b600454819061058e90600290610397906003610700565b116105cf576005546040516001600160a01b039091169082156108fc029083906000818181858888f193505050501580156105cd573d6000803e3d6000fd5b505b5050565b6105db61071f565b6001600160a01b03166105ec6101dd565b6001600160a01b0316146101db5760405162461bcd60e51b815260040161021a906108cc565b600080546001600160a01b038381166001600160a01b0319831681178455604051919092169283917f8be0079c531659141344cd1fd0a4f28419497f9722a3daafe3b4186f6b6457e09190a35050565b600080600080600080600160009054906101000a90046001600160a01b03166001600160a01b031663feaf968c6040518163ffffffff1660e01b815260040160a06040518083038186803b1580156106b957600080fd5b505afa1580156106cd573d6000803e3d6000fd5b505050506040513d601f19601f820116820180604052508101906106f191906107a1565b50919850505050505050505090565b600061070c828461092a565b9392505050565b600061070c828461090a565b3390565b805169ffffffffffffffffffff8116811461073d57600080fd5b919050565b600060208284031215610753578081fd5b81356001600160a01b038116811461070c578182fd5b60006020828403121561077a578081fd5b8151801515811461070c578182fd5b60006020828403121561079a578081fd5b5035919050565b600080600080600060a086880312156107b8578081fd5b6107c186610723565b94506020860151935060408601519250606086015191506107e460808701610723565b90509295509295909350565b6001600160a01b0391909116815260200190565b6001600160a01b039384168152919092166020820152604081019190915260600190565b6001600160a01b03929092168252602082015260400190565b918252602082015260400190565b60208082526026908201527f4f776e61626c653a206e6577206f776e657220697320746865207a65726f206160408201526564647265737360d01b606082015260800190565b60208082526019908201527f5553444320616d6f756e742073686f756c64206265203e203000000000000000604082015260600190565b6020808252818101527f4f776e61626c653a2063616c6c6572206973206e6f7420746865206f776e6572604082015260600190565b90815260200190565b60008261092557634e487b7160e01b81526012600452602481fd5b500490565b600081600019048311821515161561095057634e487b7160e01b81526011600452602481fd5b50029056fea264697066735822122032730f7baade41c4c97908976ddda9f0d98751bc499be8b5b5fc335f1d4f5ad464736f6c63430008000033",
  "immutableReferences": {},
  "source": "// SPDX-License-Identifier: MIT\npragma solidity ^0.8.0;\nimport \"@openzeppelin/contracts/access/Ownable.sol\";\nimport \"@chainlink/contracts/src/v0.8/interfaces/AggregatorV3Interface.sol\";\nimport \"@openzeppelin/contracts/utils/math/SafeMath.sol\";\n\ninterface ERC20Token {\n    function transfer(address dst, uint wad) external returns (bool);\n    function transferFrom(address src, address dst, uint wad) external returns (bool);\n    function balanceOf(address guy) external view returns (uint);\n}\n\ncontract KingOfTheFools is Ownable {\n  using SafeMath for uint;\n  AggregatorV3Interface internal priceFeed;\n  ERC20Token public usdcToken;\n\n  struct TypeDepositInfo{        \n    uint currency; // 0: ETH,  1: USDC\n    uint256 amount;\n    address sender;\n  }\n  TypeDepositInfo private previousDeposit;\n\n  event Deposit(address indexed _from, uint _currency, uint _value);\n\n  constructor(address _usdcAddress, address _priceFeed) {\n    usdcToken = ERC20Token(_usdcAddress);       \n    priceFeed = AggregatorV3Interface(_priceFeed); \n  }\n\n  function getLatestPrice() internal view returns (int) {\n      (\n          uint80 roundID, \n          int price,\n          uint startedAt,\n          uint timeStamp,\n          uint80 answeredInRound\n      ) = priceFeed.latestRoundData();\n      return price;      \n  }\n\n  function processKingOfTheFool(uint _currency, uint256 _amount) internal {\n    if (previousDeposit.amount > 0){\n      if (previousDeposit.currency != _currency){\n        int price = getLatestPrice();\n        uint256 converted_amount = previousDeposit.amount.mul(1e12).div(uint(price));\n        if (_currency == 1){\n          converted_amount = previousDeposit.amount.mul(uint(price)).div(1e12);\n          if (converted_amount.mul(3).div(2) <= _amount){\n            usdcToken.transferFrom(address(this), previousDeposit.sender, _amount);     \n          }\n        } else {\n          if (converted_amount.mul(3).div(2) <= _amount){\n            payable(previousDeposit.sender).transfer(_amount);\n          }\n        }        \n      } else {\n         if (_currency == 1){\n            if (previousDeposit.amount.mul(3).div(2) <= _amount){\n              usdcToken.transfer(previousDeposit.sender, _amount);     \n            }             \n         } else {\n            if (previousDeposit.amount.mul(3).div(2) <= _amount){\n              payable(previousDeposit.sender).transfer(_amount);    \n            }  \n         }\n      }\n    }\n  }\n\n  function depositEth() public payable {\n    processKingOfTheFool(0, msg.value);\n    previousDeposit = TypeDepositInfo({currency:0, amount:msg.value, sender: msg.sender});    \n    emit Deposit(msg.sender, 0, msg.value);\n  }\n\n  function depositUSDC(uint256 _amount) public {\n    require(_amount > 0, \"USDC amount should be > 0\");    \n    usdcToken.transferFrom(msg.sender, address(this), _amount);  \n    processKingOfTheFool(1, _amount);\n    previousDeposit = TypeDepositInfo(1, _amount, msg.sender);\n    emit Deposit(msg.sender, 1, _amount);\n  }\n\n  function getContractBal() public view returns (uint){\n    return address(this).balance;\n  }\n}\n",
  "sourcePath": "/Volumes/Data/NFT/Test/contracts/KingOfTheFools.sol",
  "compiler": {
    "name": "solc",
    "version": "0.8.0+commit.c7dfd78e.Emscripten.clang"
  },
  "schemaVersion": "3.4.5",
  "updatedAt": "2022-09-23T10:57:44.238Z",
  "networkType": "ethereum",
  "devdoc": {
    "kind": "dev",
    "methods": {
      "owner()": {
        "details": "Returns the address of the current owner."
      },
      "renounceOwnership()": {
        "details": "Leaves the contract without owner. It will not be possible to call `onlyOwner` functions anymore. Can only be called by the current owner. NOTE: Renouncing ownership will leave the contract without an owner, thereby removing any functionality that is only available to the owner."
      },
      "transferOwnership(address)": {
        "details": "Transfers ownership of the contract to a new account (`newOwner`). Can only be called by the current owner."
      }
    },
    "version": 1
  },
  "userdoc": {
    "kind": "user",
    "methods": {},
    "version": 1
  }
}